:020000040800F2
:1000000098200024AD020008D1441008593410088B
:10001000094A0008FB001008154F100800000000F6
:10002000000000000000000000000000ED44100887
:1000300009120008000000000D4A0008EF441008F3
:10004000C7020008C7020008C7020008C70200086C
:10005000C7020008C7020008C7020008C70200085C
:10006000C7020008290D1008C7020008C7020008CF
:10007000C7020008C7020008C7020008C70200083C
:10008000F911000839051008C7020008C702000866
:10009000C7020008C7020008C7020008C70200081C
:1000A000C7020008C7020008C7020008C70200080C
:1000B000C7020008C7020008C70200085D34100824
:1000C0005D3E0008C7020008C7020008C70200081A
:1000D000C7020008C7020008ED4E1008D14B000807
:1000E000C7020008C702000800000000C70200089D
:1000F000C7020008C7020008C7020008C7020008BC
:10010000C7020008C7020008C7020008C7020008AB
:1001100079461008854A0008C7020008C70200088F
:10012000C7020008C7020008C7020008C70200088B
:10013000C7020008C7020008C7020008C70200087B
:1001400000000000000000000000000000000000AF
:10015000C7020008C7020008C7020008014F1008C4
:10016000C7020008C7020008C7020008C70200084B
:10017000C7020008C7020008C7020008000000000C
:10018000C7020008C70200088D461008994A0008F7
:10019000C7020008C7020008C7020008C70200081B
:1001A000C7020008C7020008C7020008C70200080B
:1001B000C7020008C7020008C7020008C7020008FB
:1001C000C7020008C7020008C7020008C7020008EB
:1001D000C7020008C7020008C7020008C7020008DB
:1001E000C7020008C7020008C7020008C7020008CB
:1001F000C7020008C7020008C7020008C7020008BB
:10020000C7020008C7020008C7020008C7020008AA
:10021000C7020008C7020008C7020008C70200089A
:10022000C7020008C7020008C7020008000000005B
:10023000C7020008C702000800000000C70200084B
:10024000C7020008C7020008C7020008C70200086A
:10025000C7020008C7020008C7020008C70200085A
:10026000C7020008C7020008C7020008C70200084A
:10027000C7020008C7020008C7020008000000000B
:10028000C7020008C7020008C702000800000000FB
:1002900000000000C7020008DFF80CD000F040F8B2
:1002A00000480047354D0008982000240648804744
:1002B00006480047FEE7FEE7FEE7FEE7FEE7FEE74B
:1002C000FEE7FEE7FEE7FEE7C945100899020008D1
:1002D000202A04DB203A21FA02F00021704721FA9B
:1002E00002F3D040C2F12002914008431946704702
:1002F00070B521F0004303430CD0C1F30A5500242C
:10030000D5EB040564EB0403D617AD1AB34102DB49
:100310000020014670BD201841EB025170BD000065
:10032000064C074D06E0E06840F0010394E8070042
:1003300098471034AC42F6D3FFF7B2FFD05C000808
:10034000F05C000870B504464E492068884203D02E
:100350004D492068884208D14C48006800F440307C
:1003600008B1012009E0002007E04948006800F4D6
:10037000403008B1012000E00020B8B102F076FD65
:1003800005466068B0F5803F06D0B0F5003F04D068
:10039000B0F5403F08D105E000BF6068000CB5FB38
:1003A000F0F502E0AD0800E000BF2AE04FF40020C5
:1003B00002F002FA05466068C0F31101F9B9801431
:1003C0000C281CD2DFE800F01B060708090A0B11F5
:1003D0001315171900BF00BF00BF00BF00BF606842
:1003E000800C4000B5FBF0F50AE02D0908E06D092E
:1003F00006E0AD0904E0ED0902E02D0A00E000BFCF
:1004000000BF02F11DF841F20301884210D82148D3
:10041000854206D92068806840F480702168886031
:100420002FE02068806820F480702168886028E0D0
:100430006D081948854206D82068806820F440700D
:10044000216888601DE01548854208D820688068CA
:1004500020F4407040F480702168886011E01048FA
:10046000854208D82068806820F4407040F400700D
:100470002168886005E02068806840F44070216849
:10048000886070BD00200240002102400823024025
:1004900008630258002D3101105E5F0020BCBE00D1
:1004A00040787D012DE9F05F044688464FF0000951
:1004B0004746206803F0F3FF8246206803F0E5FF1B
:1004C0008346BAF1000F02D1BBF1000F6ED0206855
:1004D000C06800F0007000B3607D01281DD1207D50
:1004E00001281AD101270FE0314881450AD3606DF8
:1004F00040F010006065A06D40F00100A065012093
:10050000BDE8F09F09F1010920680068C0F3801080
:100510000028E9D0402021680860022F10D0206810
:1005200003F0BDFF60B1206803F11DFD40B92068F4
:100530008168204A114041F01001816000BF00BF76
:10054000012F10D0206803F0A0FF60B1206803F1F4
:100550000AFD40B920688168164A114041F0200127
:10056000816000BF00BF022F03D0032F03D10C25F1
:1005700003E0082501E0042500BF00BF01F166FF8C
:1005800006460EE001F162FF801B052809D9606D67
:1005900040F010006065A06D40F00100A0650120F2
:1005A000AEE72068806828400028EBD10020A7E74C
:1005B00000DC0C00C0FFFF7F70B50446206803F12B
:1005C000D2FC0646206803F065FF70B36EBB20685E
:1005D000806800F00D0001280AD120688168174A60
:1005E0001140891C816000BF03202168086009E078
:1005F000606D40F010006065A06D40F00100A065E6
:10060000012070BD01F122FF05460FE001F11EFF40
:10061000401B02280AD9606D40F010006065A06D93
:1006200040F00100A0650120EBE705E0206880684C
:1006300000F001000028E9D10020E2E7C0FFFF7FC1
:1006400070B50446206803F025FF00284CD12068CF
:1006500080682649084048B1606D40F01000606530
:10066000A06D40F00100A065012070BD206803F17D
:100670006DFC01F1EBFE05461D4A2168914203D055
:100680001C4A2168914201D11B4900E01B490846E0
:1006900003F164FC064617492068884201D11448DA
:1006A00000E020682168884200D0E6B915E02068A3
:1006B00003F0F0FE10B9206803F148FC01F1C6FE1A
:1006C000401B022809D9606D40F010006065A06DE4
:1006D00040F00100A0650120C7E72068006800F035
:1006E00001000028E3D000BF0020BEE73F000080EB
:1006F0000020024000210240002302400063025813
:1007000010B5FFF0FDFC00F07DF8B7EE000B3948A6
:1007100080ED180B9FED380B80ED1A0B9FED360B1B
:1007200080ED1C0B90ED181BB0EE410B502003F038
:10073000EBFF304890ED1C1BB0EE410B582003F04E
:10074000E3FF2F4890EDBE1BB0EE410B002003F0FD
:10075000DBFF2B4890EDC01BB0EE410B082003F0EF
:10076000D3FF274890EDC21BB0EE410B102003F0E1
:10077000CBFF234890EDC41BB0EE410B182003F0D3
:10078000C3FF1F4890EDC61BB0EE410B202003F0C5
:10079000BBFF1B4890EDCA1BB0EE410B282003F0B5
:1007A000B3FF174890EDCC1BB0EE410B302003F0A7
:1007B000ABFF134890EDCE1BB0EE410B382003F099
:1007C000A3FF0F4890EDD01BB0EE410B402003F08B
:1007D0009BFF0B4890EDD21BB0EE410B482003F07D
:1007E00093FF0020064981F8F402012081F8F0020D
:1007F00010BD0000880B0024000000000000000075
:10080000000C0024FE4890ED0C1B90ED002B81EEB7
:10081000023BB0EE430B90ED0E1B90ED022B02EE6F
:10082000401B80ED0E1B90ED101B90ED042B02EE93
:10083000401B80ED101B90ED121B90ED062B02EE7D
:10084000401B80ED121B90ED141B90ED082B02EE67
:10085000401B80ED141B90ED161B90ED0A2B02EE51
:10086000401B80ED161B90ED181B90ED002B81EEC8
:10087000023BB0EE430B90ED1A1B90ED022B02EE03
:10088000401B80ED1A1B90ED1C1B90ED042B02EE1B
:10089000401B80ED1C1B90ED1E1B90ED062B02EE05
:1008A000401B80ED1E1B90ED201B90ED082B02EEEF
:1008B000401B80ED201B90ED221B90ED0A2B02EED9
:1008C000401B80ED221B90ED241B90ED002B81EE50
:1008D000023BB0EE430B90ED261B90ED022B02EE97
:1008E000401B80ED261B90ED281B90ED042B02EEA3
:1008F000401B80ED281B90ED2A1B90ED062B02EE8D
:10090000401B80ED2A1B90ED2C1B90ED082B02EE76
:10091000401B80ED2C1B90ED2E1B90ED0A2B02EE60
:10092000401B80ED2E1B90ED301B90ED002B81EED7
:10093000023BB0EE430B90ED321B90ED022B02EE2A
:10094000401B80ED321B90ED341B90ED042B02EE2A
:10095000401B80ED341B90ED361B90ED062B02EE14
:10096000401B80ED361B90ED381B90ED082B02EEFE
:10097000401B80ED381B90ED3A1B90ED0A2B02EEE8
:10098000401B80ED3A1B90ED1A1B90ED0E2B81EE73
:10099000023BB0EE430B90ED1C1B90ED102B02EED2
:1009A000401B80ED1C1B90ED1E1B90ED122B02EEE8
:1009B000401B80ED1E1B90ED201B90ED142B02EED2
:1009C000401B80ED201B90ED221B90ED162B02EEBC
:1009D000401B80ED221B90ED261B90ED0E2B81EE2F
:1009E000023BB0EE430B90ED281B90ED102B02EE76
:1009F000401B80ED281B90ED2A1B90ED122B02EE80
:100A0000401B80ED2A1B90ED2C1B90ED142B02EE69
:100A1000401B80ED2C1B90ED2E1B90ED162B02EE53
:100A2000401B80ED2E1B90ED321B90ED0E2B81EEC6
:100A3000023BB0EE430B90ED341B90ED102B02EE19
:100A4000401B80ED341B90ED361B90ED122B02EE17
:100A5000401B80ED361B90ED381B90ED142B02EE01
:100A6000401B80ED381B90ED3A1B90ED162B02EEEB
:100A7000401B80ED3A1B90ED281B90ED1C2B81EE66
:100A8000023BB0EE430B90ED2A1B90ED1E2B02EEC5
:100A9000401B80ED2A1B90ED2C1B90ED202B02EECD
:100AA000401B80ED2C1B90ED2E1B90ED222B02EEB7
:100AB000401B80ED2E1B90ED341B90ED1C2B81EE26
:100AC000023BB0EE430B90ED361B90ED1E2B02EE79
:100AD000401B80ED361B90ED381B90ED202B02EE75
:100AE000401B80ED381B90ED3A1B90ED222B02EE5F
:100AF000401B80ED3A1B90ED361B90ED2A2B81EECA
:100B0000023BB0EE430B90ED381B90ED2C2B02EE28
:100B1000401B80ED381B90ED3A1B90ED2E2B02EE22
:100B2000401B80ED3A1B90ED3A1B90ED382B81EE87
:100B3000023B344880EDD23B314890ED2E1B90EDC6
:100B40002C2B304890EDD23B02EE431B2C4890ED0D
:100B50002A2B81EE023B2B4880EDD03B284890EDBC
:100B6000221B90ED202B274890EDD23B02EE431B39
:100B7000234890ED1E2B234890EDD03B02EE431B03
:100B80001F4890ED1C2B81EE023B1E4880EDCE3BB2
:100B90001B4890ED161B90ED142B1A4890EDD23B9C
:100BA00002EE431B164890ED122B164890EDD03BF9
:100BB00002EE431B124890ED102B124890EDCE3BF5
:100BC00002EE431B0E4890ED0E2B81EE023B0D48CA
:100BD00080EDCC3B0A4890ED0A1B90ED082B0948AC
:100BE00090EDD23B02EE431B054890ED062B0548E5
:100BF00090EDD03B02EE431B014890ED042B03E047
:100C0000781B0024000C00240A4890EDCE3B02EE35
:100C1000431B094890ED022B064890EDCC3B02EEB9
:100C2000431B054890ED002B81EE023B014880ED0F
:100C3000CA3B7047000C0024781B0024FE48407813
:100C400000287DD1FC48B0F8E00250287FDD02206A
:100C5000F9494870084690EDD60A20EE000AD0ED1A
:100C6000D60A20EE200AD0EDD60A20EE200AB7EEF2
:100C7000C00AF24880ED000B084690EDD60A20EE3F
:100C8000000AD0EDD60A20EE200AB7EEC00AEB48E3
:100C900080ED020B084690EDD60A20EE000AB7EE72
:100CA000C00AE64880ED040B084690EDD60AB7EE80
:100CB000C00AE24880ED060BB7EE000B80ED080B92
:100CC0009FEDDF0B80ED0A0B084690EDD60A20EE73
:100CD000000AD0EDD60A20EE200AD0EDD60A20EE8A
:100CE000200AB7EEC00AD84880ED000B084690ED08
:100CF000D60A20EE000AD0EDD60A20EE200AB7EE82
:100D0000C00AD14880ED020B084690EDD60A20EECD
:100D1000000AB7EEC00ACC4880ED040B084690EDFF
:100D2000D60AB7EEC00AC84880ED060BB7EE000B36
:100D300080ED080B9FEDC20B80ED0A0B084600E02A
:100D400005E0D0F8840300F5FA70486044E2BA4840
:100D50004078032848D1B848B0F8E002502843DD75
:100D60000420B5494870084690EDD60A20EE000AE6
:100D7000D0EDD60A20EE200AD0EDD60A20EE200AC9
:100D8000B7EEC00AAD4880ED0C0B084690EDD60AD0
:100D900020EE000AD0EDD60A20EE200AB7EEC00AF7
:100DA000A64880ED0E0B084690EDD60A20EE000A0C
:100DB000B7EEC00AA14880ED100B084690EDD60AA8
:100DC000B7EEC00A9D4880ED120BB7EE000B80ED28
:100DD000140B9FED9E0B80ED160B0846D0F8840394
:100DE00000F5FA704860F7E19348407805287DD116
:100DF0009148B0F8E00250287FDD06208E49487007
:100E0000084690EDD60A20EE000AD0EDD60A20EE74
:100E1000200AD0EDD60A20EE200AB7EEC00A874895
:100E200080ED180B084690EDD60A20EE000AD0EDB2
:100E3000D60A20EE200AB7EEC00A804880ED1A0BD1
:100E4000084690EDD60A20EE000AB7EEC00A7B48AD
:100E500080ED1C0B084690EDD60AB7EEC00A774825
:100E600080ED1E0BB7EE000B80ED200B9FED790B94
:100E700080ED220B084690EDD60A20EE000AD0ED58
:100E8000D60A20EE200AD0EDD60A20EE200AB7EED0
:100E9000C00A6D4880ED0C0B084690EDD60A20EE96
:100EA000000AD0EDD60A20EE200AB7EEC00A664846
:100EB00080ED0E0B084690EDD60A20EE000AB7EE44
:100EC000C00A614880ED100B084690EDD60AB7EED7
:100ED000C00A5D4880ED120BB7EE000B80ED140BDD
:100EE0009FED5C0B80ED160B084600E005E0D0F8A6
:100EF000840300F5FA7048606EE14F484078072897
:100F00007DD14D48B0F8E00250287FDD08204A49E5
:100F10004870084690EDD60A20EE000AD0EDD60AB9
:100F200020EE200AD0EDD60A20EE200AB7EEC00A45
:100F3000424880ED240B084690EDD60A20EE000AC8
:100F4000D0EDD60A20EE200AB7EEC00A3B4880ED6D
:100F5000260B084690EDD60A20EE000AB7EEC00A2E
:100F6000364880ED280B084690EDD60AB7EEC00A49
:100F7000324880ED2A0BB7EE000B80ED2C0B9FED75
:100F8000370B80ED2E0B084690EDD60A20EE000AB6
:100F9000D0EDD60A20EE200AD0EDD60A20EE200AA7
:100FA000B7EEC00A284880ED180B084690EDD60A27
:100FB00020EE000AD0EDD60A20EE200AB7EEC00AD5
:100FC000214880ED1A0B084690EDD60A20EE000A63
:100FD000B7EEC00A1C4880ED1C0B084690EDD60AFF
:100FE000B7EEC00A184880ED1E0BB7EE000B80ED7F
:100FF000200B9FED1A0B80ED220B084600E005E068
:10100000D0F8840300F5FA704860E5E00A484078BB
:1010100009287CD10848B0F8E002502877DD0A2082
:1010200005494870084690EDD60A20EE000AD0ED3A
:10103000D60A20EE200A15E0000C0024581A0024DD
:101040000000000000000000781B002400000000E9
:10105000000049400000000000005940000000006E
:1010600000C06240D0EDD60A20EE200AB7EEC00ADA
:101070005A4880ED300B084690EDD60A20EE000A63
:10108000D0EDD60A20EE200AB7EEC00A534880ED14
:10109000320B084690EDD60A20EE000AB7EEC00AE1
:1010A0004E4880ED340B084690EDD60AB7EEC00AE4
:1010B0004A4880ED360BB7EE000B80ED380B9FED04
:1010C000480B80ED3A0B084690EDD60A20EE000A58
:1010D000D0EDD60A20EE200AD0EDD60A20EE200A66
:1010E000B7EEC00A404880ED240B084690EDD60AC2
:1010F00020EE000AD0EDD60A20EE200AB7EEC00A94
:10110000394880ED260B084690EDD60A00E01DE038
:1011100020EE000AB7EEC00A334880ED280B0846DF
:1011200090EDD60AB7EEC00A2F4880ED2A0BB7EE35
:10113000000B80ED2C0B9FED2A0B80ED2E0B08464B
:10114000D0F8840300F5FA70486045E027484078FD
:101150000B2841D12548B0F8E00250283CDD0C2096
:1011600022494870084690EDD60A20EE000AD0EDDC
:10117000D60A20EE200AD0EDD60A20EE200AB7EEDD
:10118000C00A194880ED300B084690EDD60A20EED3
:10119000000AD0EDD60A20EE200AB7EEC00A1248A7
:1011A00080ED320B084690EDD60A20EE000AB7EE2D
:1011B000C00A0D4880ED340B084690EDD60AB7EE14
:1011C000C00A094880ED360BB7EE000B80ED380BF6
:1011D0009FED070B80ED3A0B70470000581A002472
:1011E0000000000000006940781B0024000C00246F
:1011F0000000000000806B4010B50249C86B00F190
:10120000A3FB10BD600500247047000070B50446C4
:10121000012C10D14B480078401C4A490870084600
:101220000078022801DD002008704649087800F0A7
:101230001DF9054683E0022C10D142484078401C3D
:101240004049487008464078042801DD0020487075
:101250003C49487800F00AF9054670E0032C10D1AB
:1012600038488078401C37498870084680780628BE
:1012700001DD002088703349887800F0F7F80546D2
:101280005DE0042C10D12F48C078401C2D49C87057
:101290000846C078032801DD0020C8702949C878B5
:1012A00000F0E4F805464AE0052C10D12548007905
:1012B000401C2449087108460079032801DD0020FC
:1012C00008712049087900F0D1F8054637E0062C6E
:1012D00010D11C484079401C1A4948710846407991
:1012E000012801DD002048711649487900F0BEF858
:1012F000054624E0072C10D112488079401C114982
:10130000887108468079012801DD002088710D4927
:10131000887900F0ABF8054611E0082C0FD1094898
:10132000C079401C0749C8710846C079032801DD0F
:101330000020C8710349C87900F098F8054628468E
:1013400070BD0000880B002410B50446072C79D22C
:10135000DFE804F081040506077980007CE07BE08B
:101360007AE040484078022813D13E4840683D4921
:10137000D1F8841388420CD203203A4948700020E7
:10138000A1F8E0029FED380A01F5406080ED540AB3
:1013900057E034484078042813D132484068314936
:1013A000D1F8841388420CD205202E4948700020C1
:1013B000A1F8E0029FED2C0A01F5406080ED540A8F
:1013C0003FE028484078062813D126484068254940
:1013D000D1F8841388420CD207202249487000209B
:1013E000A1F8E0029FED200A01F5406080ED540A6B
:1013F00027E01C484078082813D11A48406819494A
:10140000D1F8841388420CD2092016494870002074
:10141000A1F8E0029FED140A01F5406080ED540A46
:101420000FE0104840780A280BD10B200D49487076
:101430000020A1F8E0029FED0C0A01F5406080ED6C
:10144000540A09E007E00020064981F8F40281F817
:10145000F00201E000E000BF00BF00F0A7F8FFF7D6
:10146000EDFB10BD000C0024000000000146012926
:1014700001D106207047022901D1E320FAE70329B0
:1014800001D1A720F6E7042901D13620F2E705298A
:1014900001D1B520EEE7062901D1F520EAE70729B9
:1014A00001D10720E6E7082901D1F720E2E709B9D1
:1014B000D720DFE7092901D1B720DBE70020D9E7F2
:1014C0007FB50546002405E03348005D0DF80400B3
:1014D000601CC4B2102CF7DB072D59D2DFE805F0F1
:1014E000580405232E2F3A0053E007202B4981F89A
:1014F000F402002081F8F00281F8F302002405E0F4
:101500002748005D0DF80400601CC4B2102CF7DB06
:10151000224991F86800FFF7A9FF8DF80600684698
:1015200002F0CAFF35E000201C4981F8F4020120D6
:1015300081F8F002002081F8F3022AE029E000207F
:10154000164981F8F402012081F8F002002081F8A8
:10155000F3021EE00220114981F8F402002081F814
:10156000F002002405E00C48005D0DF80400601C4A
:10157000C4B2102CF7DB01200A4908700A49087828
:10158000FFF774FF8DF80500684602F095FF00E054
:1015900000BF00BF7FBD000069030024000C0024D1
:1015A0007903002489030024880B002410B5174810
:1015B00040780D2823D2DFE800F007220B220F220B
:1015C000132217221B221F00114802F075FF1AE098
:1015D000104802F071FF16E00F4802F06DFF12E0B4
:1015E0000E4802F069FF0EE00D4802F065FF0AE0C8
:1015F0000C4802F061FF06E0FFF782F803E00A48BA
:1016000002F05AFF00BF00BF10BD0000000C002414
:101610000C0400243D0400244D0400245D04002437
:101620006D0400249D0400241C04002400B589B02E
:101630002C4890F8F002012851D12A4890EDD61A92
:10164000B7EEC11AB0EE410B00F54A7100F53E70DD
:1016500004F1C0FA234880ED0A0B04F101F904F00B
:10166000ABF92048D0F878031E49D1F874131D4A0D
:1016700092F870231B4B93EDDA0BBCEEC00B8DED93
:10168000000ACDE9012103901946B1F8E03291ED4D
:10169000085BB0EE454B91F8611305EE101AB8EEF9
:1016A000455BB0EE453B0F4991F8601305EE101A0B
:1016B000B8EE455BB0EE452B0A4991ED105BB0EEFC
:1016C000451B91F8F12291ED0A5BB0EE450BD1F884
:1016D0005C0305A903F01EFC05A802F0F5FE09B0A5
:1016E00000BD0000000C002472B600BFFEE7000041
:1016F000F8B504460D4616460020009000BF94F849
:101700005000012801D10220F8BD012084F85000CA
:1017100000BF2046FEF750FF0746A7BB606D20F4D0
:10172000885040F002006065206805F4803141F087
:10173000004106F0804211438268194B1A40114360
:10174000816000BF13E00098401C0090154900988C
:1017500088420CD3606D20F0020040F010006065FC
:1017600000BF002084F8500000BF0120CCE72068B3
:101770008168C90F0029E6D1606D20F0020040F0B9
:101780000100606504E0FFE7606D40F010006065F7
:1017900000BF002084F8500000BF3846B4E70000C6
:1017A000C0FFFE3F00F8C3252DE9F84F04460D4663
:1017B0004FF0000A0020009094F83800012800D172
:1017C00000E000BFF749E868884200D00EE0F64923
:1017D0002068884200D100BFF4492068884200D1C7
:1017E00000BFF3492068884200D100BF00BF94F8D1
:1017F0005000012802D10220BDE8F88F012084F8B2
:10180000500000BF206802F04AFE00287ED1206808
:10181000C1692868C0F3130018B92868C0F3846050
:1018200004E0286890FAA0F0B0FA80F000F01F02FF
:101830000120904001432068C1612168D5E9002062
:1018400001F1300CC0F3012B0CEB8B03D3F800C07B
:1018500000F01F0E4FF01F0B0BFA0EFB2CEA0B0CC7
:1018600000F01F0BC2F3846E0EFA0BFE4CEA0E0C56
:10187000C3F800C000BF206802F011FE8146206856
:1018800002F003FE8046B9F1000F6FD1B8F1000FEE
:10189000FBD1AA682968206802F16FFBC54800687F
:1018A00000F07040B0F1805F07D168692168C968B5
:1018B000C1F382014900884014E02068C06800F04C
:1018C000100038B968692168C968C1F3820149000C
:1018D000884007E068692168C96801F0100189083B
:1018E0004900884007462869042840D020682A68B3
:1018F000296900F1600C0CEB8103D3F800C00CF0F7
:10190000004C02F0F84B4BEA070B00E0C9E14CEA4F
:101910000B0CC3F800C000BF20686A7E2969012A49
:1019200001D1D20700E00022134600F1600C0CEB5D
:101930008102D2F800C02CF0004C4CEA030CC2F833
:1019400000C000BF20682B7E2969012B01D1DB027A
:1019500000E000231A46036923F4F04301F01F0C52
:1019600002FA0CFC43EA0C03036100BF37E0206875
:10197000006E00F0F8402978B0EB816F05D1206847
:10198000006E20F00040216808662068406E00F07C
:10199000F8402978B0EB816F05D12068406E20F0C7
:1019A0000040216848662068806E00F0F840297881
:1019B000B0EB816F05D12068806E20F00040216877
:1019C00088662068C06E00F0F8402978B0EB816F1F
:1019D00005D12068C06E20F000402168C8662068EC
:1019E00002F058FD002870D12068EA682968D0F814
:1019F000C0C0C1F313032CEA030C02F0180B6E4BAA
:101A000023FA0BF30B404CEA030CC0F8C0C000BF34
:101A10006449E86888427DD12B68C3F313031BB97E
:101A20002B68C3F3846304E02B6893FAA3F3B3FA3F
:101A300083F35B1C03F01F03092B3ED82B68C3F311
:101A400013031BB92B68C3F3846304E02B6893FA78
:101A5000A3F3B3FA83F35B1C03F01F034FF0010CF5
:101A60000CFA03FC2B68C3F313031BB92B68C3F3F5
:101A7000846304E02B6893FAA3F3B3FA83F35B1C4B
:101A800003F01F034CEA836C2B68C3F313031BB9E9
:101A90002B68C3F3846304E02B6893FAA3F3B3FACF
:101AA00083F35B1C03F01F0303EB43034FF0000BB6
:101AB0004BEA03534CEA030341E02B68C3F31303DF
:101AC00023B92B68C3F3846305E0A8E02B6893FA7D
:101AD000A3F3B3FA83F35B1C03F01F034FF0010C75
:101AE0000CFA03FC2B68C3F313031BB92B68C3F375
:101AF000846304E02B6893FAA3F3B3FA83F35B1CCB
:101B000003F01F034CEA836C2B68C3F313032BB958
:101B10002B6800E018E0C3F3846304E02B6893FAB9
:101B2000A3F3B3FA83F35B1C03F01F030A3B03EB3D
:101B300043034FF0007B4BEA03534CEA030319467F
:101B4000AA68206802F119FA286800F0004000280D
:101B500065D0154A2168914203D0144A2168914208
:101B600001D1164900E016490846816801F0E07687
:101B700000BF0D492068884203D00C492068884284
:101B800001D10E4800E00E480C4988421AD106489F
:101B900002F080FC8346054802F07CFC4BEA000022
:101BA00013E000000000FF47002002400021024037
:101BB000006002580010005CFFFF0F00002302408D
:101BC000006302583D4802F065FCE8BB3C492868C8
:101BD000884225D106F4000010BB384920688842AD
:101BE00065D1384B22689A4203D0374B22689A421B
:101BF00001D1364A00E0364A104646F4000102F1AF
:101C0000D0F9344800683449B0FBF1F0400000904E
:101C100002E00098401E009000980028F9D146E0AC
:101C20002E492868884219D106F08070B0B923493E
:101C3000206888423BD1234B22689A4203D0224B32
:101C400022689A4203D100E024E0204A00E0204AC2
:101C5000104646F0807102F1A4F928E02049286876
:101C6000884224D106F4800008BB144920688842C9
:101C70001DD1144B22689A4203D0134B22689A421A
:101C800001D1124A00E0124A104646F4800102F1E6
:101C900088F90CE0606D40F0200060654FF0010AAB
:101CA00005E0606D40F0200060654FF0010A00BF64
:101CB000002084F8500000BF50469DE500600258A7
:101CC000000084CB0020024000210240002302409B
:101CD000006302580C000024400D0300000052C7AE
:101CE0000000B8CF70B504460CB9012070BD606D1E
:101CF00040F00200606503212046FEF7D3FB054655
:101D00002068C06840F400102168C86035B92046DA
:101D1000FEF752FC05460DB9012060652068406859
:101D20006FF30A002168486040F2FF702168086084
:101D30002068806820F0A040216888602068806862
:101D400040F00050216888602068C06800F0802062
:101D50002168C8602068C06840F000402168C86001
:101D60002068006967490840216808612068406967
:101D700000F04040216848612068806900F07840A8
:101D8000216888612068006A00F07C402168086250
:101D90002068406A00F07C40216848622068D0F8E2
:101DA000B00000F07C402168C1F8B0002068D0F895
:101DB000B40000F07C402168C1F8B4002068D0F87D
:101DC000B80000F07C402168C1F8B8002068D0F865
:101DD000BC0000F07C402168C1F8BC002068006BAA
:101DE00049490840216808632068406B464910391A
:101DF0000840216848632068806B434910390840D7
:101E0000216888632068C06B40F2DF7188432168D5
:101E1000C8632068006E0020216808662068406E54
:101E20000020216848662068806E0020216888664E
:101E30002068C06E00202168C8662068D0F8A00025
:101E40006FF313002168C1F8A0002068D0F8A40047
:101E50006FF313002168C1F8A4002068D0F8C00017
:101E60006FF313002168C1F8C0002068D0F8C400E7
:101E700000F0F8202168C1F8C40024492068884295
:101E800003D023492068884201D1224800E022483B
:101E90002049884208D11D4802F0FCFA06461C4839
:101EA00002F0F8FA304302E01C4802F0F3FAC8B935
:101EB00016492068884203D015492068884201D11C
:101EC000144800E014488068154908400F4A21680A
:101ED000914203D00E4A2168914201D10D4900E0A0
:101EE0000D4988602046FFF087FA0020A065E06574
:101EF00000212166606500BF84F8500000BF2846BD
:101F0000F4E600001CF800FC300882E000200240EB
:101F10000021024000230240006302580060025882
:101F2000E03000FE01460868006C70472DE9F84F6C
:101F300004464FF000090020009014B90120BDE8CC
:101F4000F88FE06818B1207F012800D100BF606DD4
:101F500030B92046FFF052FA0020A06584F8500006
:101F600020688168C1F3407131B120688168874A77
:101F70001140816000BF00BF206801F1F9FFA0B9E6
:101F800020688168824A114041F08051816000BF21
:101F9000804800688049B0FBF1F0009002E00098B2
:101FA000401E009000980028F9D1206801F1E0FF60
:101FB00048B9606D40F010006065A06D40F0010010
:101FC000A0654FF00109206802F069FA0646606DCD
:101FD00000F0100000287DD1002EFCD1606D20F4AF
:101FE000807040F002006065206802F053FA78BB10
:101FF0006A492068884203D069492068884201D133
:10200000684800E068486749884209D1634802F09F
:1020100041FA8246624802F03DFA4AEA000002E0D4
:10202000624802F037FA98B95C4B22689A4203D0B2
:102030005B4B22689A4201D15A4A00E05A4A104644
:102040006168826822F47C120A43826000BF00BF8C
:1020500000F1F6F941F2030188420ED9A068102878
:102060000BD1607D216B41EA4030A168084340F00C
:102070000C01207F41EA004508E0607D216B41EAC8
:102080004030A1680843217F40EA0145207F0128B4
:1020900003D1208C401E45EA4045606A28B1A08CDF
:1020A00000F47870A16A084305432068C06840497D
:1020B000084028432168C860206802F0F0F9804693
:1020C000206802F0E2F90746B8F1000F3BD1D7BB18
:1020D000207D00E051E0E16A41EA80352068C06877
:1020E00044F20301884328432168C86094F838000B
:1020F000012817D1606A08B1A06A00B900BFA08F9B
:10210000401E012141EA0041206C0843616C0843F4
:10211000A16C084321680969264A114008432168D7
:10212000086105E02068006920F00100216808616D
:102130002068006920F07040616B084321680861E5
:102140002046FEF7FFF8E068012809D12068006BFF
:1021500020F00F00A169491E08432168086305E0CB
:102160002068006B20F00F0021680863606D20F08C
:10217000020040F00100606505E0606D40F0100075
:1021800060654FF001094846D9E60000C0FFFF5FD7
:10219000C0FFFF7F0C000024400D03000020024020
:1021A00000210240002302400063025800600258F0
:1021B00003C0F0FF1EF800FC70B5044600F146F9BC
:1021C00006462546681C10B104480078054400BF47
:1021D00000F13CF9801BA842FAD370BD080000242E
:1021E000002000214FF47F41024A12680A40100A81
:1021F00070470000100C02587047000010B50446EC
:1022000004480068204020B1024804602046FFF7DF
:10221000F3FF10BD88000058F8B502460023734D47
:10222000DEE001279F400E6806EA0704002C71D00B
:102230004E68012E08D04E68022E05D04E68112E31
:1022400002D04E68122E13D190685F000326BE4064
:10225000B0435F00CE68BE403043906050680126B6
:102260009E40B0430E79C6F300169E403043506046
:10227000D0685F000326BE40B0435F008E68BE405A
:102280003043D0604E68022E02D04E68122E13D119
:10229000DF0802F1200656F827005E07F70E0F262A
:1022A000BE40B0435F07FF0E0E69BE403043DF08FB
:1022B00002F1200646F8270010685F000326BE40A2
:1022C000B0430E7906F003065F00BE403043106055
:1022D0004E6806F08056B6F1805F1BD100BF444EB9
:1022E000366846F00206424F3E603E46366806F0CB
:1022F0000206009600BF00BF3E4E9F0856F827001A
:102300009E07370F0F26BE40B0433B4EB24202D16C
:1023100000262EE063E0394EB24201D1012628E0CA
:10232000374EB24201D1022623E0364EB24201D1ED
:1023300003261EE0344EB24201D1042619E0334E8A
:10234000B24201D1052614E0314EB24201D1062637
:102350000FE0304EB24201D107260AE02E4EB242C3
:1023600001D1082605E02D4EB24201D1092600E038
:102370000A269F073F0FBE4030431E4E9F0846F877
:1023800027002868A0434E6806F48036B6F5803FE3
:1023900000D1204328606868A0434E6806F40036E8
:1023A000B6F5003F00D1204368604FF0B04630687A
:1023B000A0434E6806F48016B6F5801F00D1204376
:1023C0004FF0B04630607068A0434E6806F40016C7
:1023D000B6F5001F00D120434FF0B04670605B1C83
:1023E0000E68DE40002E7FF41CAFF8BD8000005860
:1023F000F44402580804005800000258000402582F
:1024000000080258000C025800100258001402582C
:1024100000180258001C02580020025800240258DC
:102420000AB1816101E00B048361704770472DE9B7
:10243000F04104462068856920680668C5F30020DD
:1024400050B1C6F3C01038B1606C40F00100606458
:102450004FF480702168C861C5F3802050B1C6F385
:10246000C01038B1606C40F0080060644FF48060C8
:102470002168C861C5F3402050B1C6F3C01038B11F
:10248000606C40F0020060644FF400702168C86125
:10249000676C07F00B0018B13946204601F11EF8B1
:1024A000BDE8F08170B5044620688569206806683B
:1024B000606B20B1324629462046636B984770BD59
:1024C0000121014A11607047C400002470470000D8
:1024D00070B504461148007808B9012070BD0F4856
:1024E00000784FF47A71B1FBF0F00D490968B1FB47
:1024F000F0F5284600F132FE08B10120EEE7102C7D
:1025000007D200222146501E00F153FA054804600C
:1025100001E00120E2E70020E0E7000008000024DD
:102520000C0000240400002470B50446154800681F
:10253000C0F3800048B91348006800F00700A042CB
:1025400001D0012070BD0020FCE70E48006820F09B
:10255000070020430B490860FFF078FF054607E0BD
:10256000FFF074FF401BB0F57A7F01D90120E9E745
:10257000044808380068C0F340300028F0D000203C
:10258000E0E700000C48025870B50146844D2D6804
:1025900005F00303824D2D68C5F30530804D2D1DD8
:1025A0002D68C5F300147E4D14352D68C5F3CC0598
:1025B00015FB04F501EE105AB8EE411AF0EE410A8F
:1025C00000286FD023B1012B4ED0022B6BD16BE0D2
:1025D000734D283D2D68C5F340153DB3704D283D22
:1025E0002D68C5F3C1066F4D25FA06F201EE102ADB
:1025F000F8EE411A01EE100AB8EE411A81EE812A76
:102600009FED691AC0EE811A654D10352D68C5F32E
:10261000080501EE105AB8EE411A31EE811AF7EEB4
:10262000001A31EE211A22EE010A1CE001EE100A16
:10263000B8EE411ADFED5D1A81EE812A9FED5A1A3C
:10264000C0EE811A564D10352D68C5F3080501EE10
:10265000105AB8EE411A31EE811AF7EE001A31EE37
:10266000211A22EE010A5BE001EE100AB8EE411ACF
:10267000DFED4F1A81EE812A9FED4B1AC0EE811AD1
:10268000474D10352D68C5F3080501EE105AB8EE18
:10269000411A31EE811AF7EE001A31EE211A22EEBC
:1026A000010A3DE077E01DE001EE100AB8EE411AA4
:1026B0009FED402AC2EE011A9FED3B1A80EE812A5F
:1026C000374D10352D68C5F3080501EE105AB8EEE8
:1026D000411A32EE011AB7EE002A31EE021A21EE4B
:1026E000810A1DE001EE100AB8EE411ADFED301A42
:1026F00081EE812A9FED2C1AC0EE811A284D1035EB
:102700002D68C5F3080501EE105AB8EE411A31EEF6
:10271000811AF7EE001A31EE211A22EE010A00BFEB
:1027200000BF1F4D10352D68C5F3462501EE105A28
:10273000B8EE411AF7EE001A31EE211AC0EE011A76
:10274000BCEEE11A81ED001A154D10352D68C5F368
:10275000064501EE105AB8EE411AF7EE001A31EEB6
:10276000211AC0EE011ABCEEE11A81ED011A0C4DDE
:1027700010352D68C5F3066501EE105AB8EE411A02
:10278000F7EE001A31EE211AC0EE011ABCEEE11A82
:1027900081ED021A03E000250D604D608D6070BD73
:1027A000284402580090D003000000460024744CD6
:1027B0000024744A20BCBE4B2DE9F0418AB0064685
:1027C000B6F5807F32D1DC48006800F00707052F9E
:1027D00029D2DFE807F003080D26120007A800F150
:1027E0004BF9089C21E004A8FFF7CEFE049C1CE0F6
:1027F00001A800F159FA019C17E0CF48001F0068BA
:1028000000F040550DB9CD4C0AE0B5F1805F01D123
:10281000CB4C05E0B5F1005F01D1CA4C00E00024CB
:1028200003E0C94C01E0002400BF80E1B6F5007F61
:1028300038D1C148006800F4E077802F14D003DC61
:1028400047B1402F2BD10AE0C02F26D0B7F5807FAB
:1028500025D10EE007A800F10FF9089C21E004A89B
:10286000FFF792FE049C1CE001A800F11DFA019CF8
:1028700017E0B148001F006800F040550DB9AF4C9B
:102880000AE0B5F1805F01D1AD4C05E0B5F1005F24
:1028900001D1AC4C00E0002403E0AB4C01E000248B
:1028A00000BF44E1B6F5806F3CD1A3480830006812
:1028B00000F46007B7F5800F16D004DC57B1B7F508
:1028C000001F2CD10BE0B7F5C00F26D0B7F5000FD5
:1028D00025D10EE007A800F1CFF8089C21E004A85C
:1028E000FFF752FE049C1CE001A800F1DDF9019CF9
:1028F00017E09148001F006800F040550DB98F4C5B
:102900000AE0B5F1805F01D18D4C05E0B5F1005FC3
:1029100001D18C4C00E0002403E08B4C01E000244A
:1029200000BF04E1B6F5006F3CD183480830006871
:1029300000F0E067B7F1007F16D004DC57B1B7F1C3
:10294000807F2CD10BE0B7F1407F26D0B7F1806FAC
:1029500025D10EE007A800F18FF8089C21E004A81B
:10296000FFF712FE049C1CE001A800F19DF9019CF8
:1029700017E07148001F006800F040550DB96F4C1A
:102980000AE0B5F1805F01D16D4C05E0B5F1005F63
:1029900001D16C4C00E0002403E06B4C01E000240A
:1029A00000BFC4E0B6F5805F3DD16348006800F425
:1029B000E048B8F5005F18D006DCB8F1000F0AD087
:1029C000B8F5805F2CD10BE0B8F5405F26D0B8F5A4
:1029D000804F25D10EE007A800F14EF8089C21E0B9
:1029E00004A8FFF7D1FD049C1CE001A800F15CF9EC
:1029F000019C17E05048001F006800F040550DB9D9
:102A00004E4C0AE0B5F1805F01D14D4C05E0B5F1C7
:102A1000005F01D14B4C00E0002403E04A4C01E090
:102A2000002400BF83E0B6F5002F2FD142480830C4
:102A3000006800F44038B8F1000F06D0B8F5803FC8
:102A400008D0B8F5003F1ED109E004A8FFF79CFDAF
:102A5000049C1AE001A800F127F9039C15E0364810
:102A6000001F006800F040550DB9344C0AE0B5F184
:102A7000805F01D1324C05E0B5F1005F01D1314CEE
:102A800000E0002401E0002400BF50E0B6F5803FE4
:102A900018D12948001F006800F48038B8F1000FF1
:102AA00003D0B8F5803F0AD104E007A8FFF0E4FFA7
:102AB000089C06E004A8FFF767FD069C01E00024DF
:102AC00000BF34E0B6F5804F30D11B4808300068B5
:102AD00000F0E048B8F1405F1FD009DCB8F1000F0A
:102AE0000DD0B8F1805F0ED0B8F1005F1BD10FE0C0
:102AF000B8F1804F13D0B8F1A04F14D111E0FFF01E
:102B0000A9FF044611E004A8FFF73EFD059C0CE078
:102B100001A800F1C9F8029C07E0084C05E0084C48
:102B200003E0084C01E0002400BF00E00024204640
:102B30000AB0BDE8F0810000504402580090D00374
:102B400000093D0040787D010080BB002DE9F04187
:102B500004460D4614B90120BDE8F081BD48006867
:102B600000F00F00A8420ED2BA48006820F00F0013
:102B70002843B84908600846006800F00F00A842E2
:102B800001D00120E8E7207800F0040004280ED1ED
:102B9000B1492069096801F07001884207D9AE483F
:102BA000006820F0700021690843AB490860207874
:102BB00000F00800082811D1A749091D60690968BB
:102BC00001F07001884209D9A348001D006820F077
:102BD000700061690843A049091D0860207800F071
:102BE0001000102811D19C49091DA069096801F441
:102BF000E061884209D99848001D006820F4E0602F
:102C0000A16908439449091D0860207800F020005C
:102C1000202811D190490831E069096801F070015C
:102C2000884209D98C480830006820F07000E169BA
:102C30000843894908310860207800F00200022822
:102C40000ED18549E068096801F00F01884207D973
:102C50008148006820F00F00E16808437E49086061
:102C6000207800F00100002850D07B48006820F454
:102C70007060A1680843784908606068022807D13D
:102C8000754818380068C0F34040F8B9012063E780
:102C90006068032807D1704818380068C0F34060A6
:102CA000A0B9012058E76068012807D16A481838A0
:102CB0000068C0F3002048B901204DE76648183885
:102CC0000068C0F3800008B9012045E76248083871
:102CD000006820F00700616808435F490839086010
:102CE000FFF0B4FB064608E0FFF0B0FB801B41F2AA
:102CF0008831884201D903202EE7574808380068F8
:102D000000F038006168B0EBC10FEDD1207800F021
:102D1000020002280ED15049E068096801F00F0155
:102D2000884207D24C48006820F00F00E168084351
:102D3000494908604748006800F00F00A8420ED9D2
:102D40004448006820F00F002843424908600846C4
:102D5000006800F00F00A84201D00120FCE62078B6
:102D600000F0040004280ED13B492069096801F0F5
:102D70007001884207D23848006820F0700021694D
:102D8000084335490860207800F00800082811D170
:102D90003149091D6069096801F07001884209D252
:102DA0002D48001D006820F07000616908432A4921
:102DB000091D0860207800F01000102811D1264964
:102DC000091DA069096801F4E061884209D222481E
:102DD000001D006820F4E060A16908431E49091D38
:102DE0000860207800F02000202811D11A4908310D
:102DF000E069096801F07001884209D2164808307C
:102E0000006820F07000E169084313490831086048
:102E100000F064F810490968C1F303210F4A515CBE
:102E200001F01F0120FA01F70B48006800F00F00C5
:102E30001146085C00F01F0027FA00F008490860FE
:102E40000848076008480068FFF742FB8046404694
:102E500082E600000020005218440258E45C10088A
:102E6000100000240C0000240400002410B500F021
:102E700035F80D490968C1F303210C4A515C01F092
:102E80001F0120FA01F40848006800F00F00114605
:102E9000085C00F01F0024FA00F0054908600548AE
:102EA00004600846006810BD18440258E45C10082D
:102EB000100000240C00002400B5FFF7D7FF0549DF
:102EC0000968C1F30221044A515C01F01F01C840A6
:102ED00000BD00001C440258E45C1008F0B5824EAE
:102EE000366806F0380636B1082E15D0102E15D0EB
:102EF000182E7DD114E07C4E103E3668C6F3401685
:102F000046B1794E103E3668C6F3C107774E26FAB1
:102F100007F000E07548E5E07548E3E07548E1E05A
:102F2000714E1836366806F003046F4E1836366850
:102F3000C6F305116C4E1C36366806F001056A4E64
:102F400024363668C6F3CC0616FB05F601EE106A89
:102F5000B8EE410A002971D024B1012C50D0022CC6
:102F60006DD16DE0604E103E3668C6F340163EB33C
:102F70005D4E103E3668C6F3C1075C4E26FA07F375
:102F800001EE103AF8EE411A01EE101AB8EE411AAD
:102F900081EE812A9FED581AC0EE011A524E20365A
:102FA0003668C6F3080601EE106AB8EE411A31EE33
:102FB000811AF7EE001A31EE211A62EE010A1EE0C4
:102FC00001EE101AB8EE411ADFED4C1A81EE812A9B
:102FD0009FED491AC0EE011A434E20363668C6F3FB
:102FE000080601EE106AB8EE411A31EE811A00E0CF
:102FF00076E0F7EE001A31EE211A62EE010A5BE08C
:1030000001EE101AB8EE411A9FED3D2AC2EE011AE8
:103010009FED391A80EE012A334E20363668C6F30A
:10302000080601EE106AB8EE411A32EE011AB7EE48
:10303000002A31EE021A61EE810A3DE04EE01DE009
:1030400001EE101AB8EE411ADFED2E1A81EE812A38
:103050009FED291AC0EE011A234E20363668C6F3BA
:10306000080601EE106AB8EE411A31EE811AF7EE49
:10307000001A31EE211A62EE010A1DE001EE101A6B
:10308000B8EE411A9FED1E2AC2EE011A9FED1A1AE0
:1030900080EE012A144E20363668C6F3080601EE8B
:1030A000106AB8EE411A32EE011AB7EE002A31EE7C
:1030B000021A61EE810A00BF00BF0B4E203636684F
:1030C000C6F34626721C01EE102AB8EE411AC0EE75
:1030D000811ABCEEE11A11EE100A00E0002001E0B6
:1030E000034800BF00BFF0BD104402580090D00359
:1030F00000093D0040787D01000000460024744C2A
:103100000024744A20BCBE4B2DE9F047044614B994
:103110000120BDE8F087207800F00100002872D07F
:10312000F748006800F03808F5481830D0F80090EB
:10313000B8F1100F06D0B8F1180F0FD109F0030045
:1031400002280BD1EE4810380068C0F34040002838
:103150006ED0606800286BD10120DAE700BF60689C
:10316000B0F5803F08D1E6481038006840F4803060
:10317000E349103908602EE0606868B9E04810380B
:10318000006820F48030DE49103908600846006885
:1031900020F4802008601EE06068B0F5A02F0DD1FB
:1031A000D7481038006840F48020D54910390860AD
:1031B0000846006840F4803008600CE0D0481038C1
:1031C000006820F48030CE49103908600846006855
:1031D00020F48020086000BF6068A8B1FFF036F9D5
:1031E000054608E0FFF032F9401B41F28831884281
:1031F00001D903208DE7C24810380068C0F3404071
:103200000028EFD014E014E0FFF020F9054608E0B4
:10321000FFF01CF9401B41F28831884201D903209C
:1032200077E7B74810380068C0F340400028EFD176
:1032300000BF207800F0020002287BD1B04800686F
:1032400000F03808AE481830D0F80090B8F1000F00
:1032500005D0B8F1180F3AD109F00300B0BBA84867
:1032600010380068C0F3800018B1E06808B9012088
:103270004FE700BFFFF0E4F841F20301884219D89C
:10328000206940280AD19E480C38006820F47C3020
:1032900040F400309A490C39086016E098480C3820
:1032A000006820F47C30216940EA013094490C39EF
:1032B00008600AE092480C38006820F0FE40217C4B
:1032C00040EA01608E490C39086067E0FFE7E0687A
:1032D00088B38B481038006820F01900E168084373
:1032E000874910390860FFF0B1F8054606E0FFF0A5
:1032F000ADF8401B022801D903200AE780481038A6
:103300000068C0F380000028F1D000BFFFF098F8FB
:1033100041F2030188421BD8206940280CD178482B
:103320000C38006820F47C3040F4003074490C39CB
:10333000086018E033E017E071480C38006820F4AA
:103340007C30216940EA01306D490C3908600AE09F
:103350006B480C38006820F0FE40217C40EA016098
:1033600067490C39086019E065481038006820F09A
:103370000100634910390860FFF068F8054606E06F
:10338000FFF064F8401B022801D90320C1E65C4825
:1033900010380068C0F380000028F1D100BF207809
:1033A00000F0100010287CD15548006800F0380863
:1033B00053481830D0F80090B8F1080F06D0B8F193
:1033C000180F3DD109F00300012839D14C481038BD
:1033D0000068C0F3002020B1E069802801D00120FE
:1033E00097E600BFFFF02CF841F2030188421AD89B
:1033F000206A20280AD142480C38006820F0F840A2
:1034000040F080403E490C39086018E03C480C38D8
:10341000006820F0F84094F8201040EA81603849B4
:103420000C3908600BE03648001F006820F07C5023
:1034300094F8201040EA01603149091F086067E0F4
:10344000E06978B32E481038006840F080002C49BD
:1034500010390860FEF0FAFF054606E0FEF0F6FFC0
:10346000401B022801D9032053E625481038006884
:10347000C0F300200028F1D000BFFEF0E1FF41F2D0
:10348000030188421CD8206A20280CD11C480C3823
:10349000006820F0F84040F0804019490C3908607D
:1034A0001AE036E019E016480C38006820F0F840C1
:1034B00094F8201040EA816011490C3908600BE053
:1034C0000F48001F006820F07C5094F8201040EA5C
:1034D00001600B49091F08601AE0094810380068AC
:1034E00020F08000064910390860FEF0AFFF054665
:1034F00008E0FEF0ABFF401B022803D9032008E6DA
:1035000010440258F3480068C0F300200028F0D1AE
:1035100000BF207800F00800082836D16069D0B1DB
:10352000EC487430006840F00100EA4974310860EA
:10353000FEF08CFF054606E0FEF088FF401B0228E7
:1035400001D90320E5E5E34874300068C0F340008A
:103550000028F1D019E0DF487430006820F0010045
:10356000DC4974310860FEF071FF054606E0FEF0AC
:103570006DFF401B022801D90320CAE5D5487430ED
:103580000068C0F340000028F1D1207800F020004E
:10359000202830D1A069B8B1CE48006840F48050EE
:1035A000CC490860FEF052FF054606E0FEF04EFFF3
:1035B000401B022801D90320ABE5C6480068C0F3D0
:1035C00040300028F2D016E0C248006820F4805055
:1035D000C0490860FEF03AFF054606E0FEF036FFFF
:1035E000401B022801D9032093E5BA480068C0F3C4
:1035F00040300028F2D1207800F0040004287DD16A
:10360000B548006840F48070B3490860FEF01EFFC2
:10361000054606E0FEF01AFF401B642801D903208E
:1036200077E5AD48006800F480700028F2D000BF54
:10363000A068012808D1A7487030006840F0010058
:10364000A449703108602DE0A06868B9A1487030C5
:10365000006820F001009F4970310860084600684A
:1036600020F0040008601DE0A06805280DD19948ED
:103670007030006840F004009649703108600846D8
:10368000006840F0010008600CE09248703000686B
:1036900020F001008F49703108600846006820F072
:1036A0000400086000BFA068A0B1FEF0CFFE054690
:1036B00008E0FEF0CBFE401B41F28831884201D980
:1036C000032026E5834870300068C0F340000028DE
:1036D000EFD013E0FEF0BAFE054608E0FEF0B6FEBD
:1036E000401B41F28831884201D9032011E5794815
:1036F00070300068C0F340000028EFD1606A0028F5
:103700007DD074481030006800F03800182877D059
:10371000606A022875D16F48006820F080706D499A
:103720000860FEF093FE054606E0FEF08FFE401BAB
:10373000022801D90320ECE466480068C0F3406029
:103740000028F2D100BFD4E90A1041EA0010614913
:103750002831096840F2F332914308435D4928312A
:103760000860208E401EC0F30800616B491E4FF4B4
:103770007E4202EA41210843218F491ED20102EA1A
:10378000014108433C21095D491E120202EA016120
:10379000084350493031086000BF081F006820F01E
:1037A0000100091F08604B48343000684FF6F8717B
:1037B0008843A16C40EAC10046493431086045485D
:1037C0002C30006820F00C00216C084341492C315A
:1037D00008600846006820F00200616C08433D491B
:1037E0002C3108600846006840F4803008600846C4
:1037F000006840F4003008600846006802E066E0B7
:1038000038E01FE040F4802008600846006840F07F
:10381000010008602F48006840F080702D49086062
:10382000FEF014FE054606E0FEF010FE401B0228E6
:1038300001D903206DE427480068C0F340600028E8
:10384000F2D044E02348006820F0807021490860ED
:10385000FEF0FCFD054606E0FEF0F8FD401B0228E8
:1038600001D9032055E41B480068C0F340600028DC
:10387000F2D12CE017482830076816483030066827
:10388000606A012821D007F00301A06A81421CD19F
:10389000C7F30511E06A884217D1C6F30801206B0F
:1038A000401E814211D1606B401EC6F34621884202
:1038B0000BD1A06B401EC6F30641884205D1E06BD8
:1038C000401EC6F30661884201D0012021E4002099
:1038D0001FE40000004402580048025810B586B0AA
:1038E0000446142101A8FCF0C3FB5A492068884211
:1038F0002CD100BF5848006840F0200056490860AD
:103900000846006800F02000009000BF00BF00BF24
:1039100051481438006840F001004F4914390860DC
:103920000846006800F00100009000BF00BFE020E2
:1039300001900220029000200390032004900520B3
:10394000059001A94548FEF767FC81E044492068DD
:1039500088424AD100BF40480C38006840F480409B
:103960003D490C3908600846006800F4804000902A
:1039700000BF00BF00BF38481438006840F00400A2
:103980003549143908600846006800F004000090CA
:1039900000BF00BF00BF0846006840F0020008609A
:1039A0000846006800F00200009000BF00BF0C2035
:1039B0000190022002900020039003200490052033
:1039C000059001A92748FEF727FC4FF4005001900D
:1039D000022002900020039003200490052005900F
:1039E00001A92148FEF718FC32E0204920688842EE
:1039F0002ED100BF18480C38006840F4004016492A
:103A00000C3908600846006800F40040009000BFD0
:103A100000BF00BF10481438006840F004000E4991
:103A2000143908600846006800F00400009000BFE8
:103A300000BF4FF4E050019002200290002003905C
:103A4000032004900620059001A90648FEF7E4FB38
:103A500006B010BD00140058F4440258000002588B
:103A6000003800400008025800040258003C0040A2
:103A700070477047704710B504460CB9012010BD5F
:103A8000A06900B100E000BFD4F8800028B9002090
:103A900084F87C00204600F02BF82420C4F8800035
:103AA0002068006820F0010021680860204600F1CD
:103AB000CDFE012800D1E2E7A06A10B1204600F156
:103AC000EFFD2068406820F490402168486020683D
:103AD000806820F02A00216888602068006840F033
:103AE000010021680860204600F156FEC7E700008B
:103AF00010B586B00446142101A8FCF0B9FACA49F1
:103B00002068884234D100BFC848006840F40020D3
:103B1000C64908600846006800F40020009000BF15
:103B200000BF00BFC1480838006840F00100BF492D
:103B3000083908600846006800F00100009000BFE6
:103B400000BF032001900220029000200390032078
:103B500004900820059001A9B548FEF75DFB0422FA
:103B600000213420FEF025FF3420FEF012FF59E141
:103B7000B0492068884236D100BFAC4808300068A0
:103B800040F02000A949083108600846006800F0AC
:103B90002000009000BF00BF00BFA44808380068A4
:103BA00040F00400A149083908600846006800F0A8
:103BB0000400009000BF00BFC020019002200290CE
:103BC00000200390032004900720059001A99A4843
:103BD000FEF722FB062200214720FEF0EAFE4720E6
:103BE000FEF0D7FE1EE195492068884234D100BF1F
:103BF0008E48006840F400308C4908600846006830
:103C000000F40030009000BF00BF00BF87480838B4
:103C1000006840F0010085490839086008460068DE
:103C200000F00100009000BF00BF0C2001900220B6
:103C3000029000200390032004900720059001A922
:103C40007B48FEF7E9FA022200212620FEF0B1FEB1
:103C50002620FEF09EFEE5E079492068884235D1B5
:103C600000BF7248006840F4802070490860084630
:103C7000006800F48020009000BF00BF00BF6B48C8
:103C80000838006840F002006849083908600846B2
:103C9000006800F00200009000BF00BF4FF44060D9
:103CA000019002200290002003900320049007203E
:103CB000059001A96348FEF7AFFA032200212720EF
:103CC000FEF077FE2720FEF064FEABE05E49206840
:103CD000884235D100BF5548006840F080405349C4
:103CE00008600846006800F08040009000BF00BFF8
:103CF00000BF4E480838006840F010004B490839B2
:103D000008600846006800F01000009000BF00BF87
:103D10004FF4C07001900220029000200390032015
:103D200004900720059001A94848FEF775FA07227C
:103D300000215220FEF03DFE5220FEF02AFE71E0EE
:103D400043492068884234D100BF3848006840F0B9
:103D50000040364908600846006800F000400090C6
:103D600000BF00BF00BF31480838006840F01000B5
:103D70002E49083908600846006800F010000090DD
:103D800000BF00BF0320019002200290002003909A
:103D9000032004900820059001A92C48FEF73CFA66
:103DA000082200215320FEF004FE5320FEF0F1FD16
:103DB00038E028492068884234D100BF1B48006899
:103DC00040F48010194908600846006800F480102B
:103DD000009000BF00BF00BF14480838006840F0E2
:103DE00002001249083908600846006800F0020025
:103DF000009000BF00BF4FF440500190022002909D
:103E000000200390032004900E20059001A90D4886
:103E1000FEF702FA052200213520FEF0CAFD35200A
:103E2000FEF0B7FD06B010BD004C0040E84402585B
:103E300000000258001401400008025800440040ED
:103E4000004800400004025800780040001002586A
:103E5000007C0040005000407047000010B5024850
:103E6000FEF7E5FA10BD00006005002470B50546B8
:103E7000AC6BA06B10B10020A16B0865E06B10B1BA
:103E80000020E16B08652046FFF0EEFC70BD016884
:103E90008969C1F3400111B1002102689162016892
:103EA000896901F0010129B90168896941F00101BD
:103EB0000268916170472DE9F0470446894694F8FD
:103EC000410000F02800282852D120688069C0F302
:103ED00000472068806900F47E00050C2068806837
:103EE000C0F309062068C06800F0FE08E0680228F8
:103EF0002ED105F00600062101EAE611884216D10E
:103F00003546A06C401CA064A06C022838D100206B
:103F1000A06408202168C86100BF002084F8400028
:103F200000BF2A4639462046FEF780FA28E045467B
:103F30004FF400412046FFF099FA00BF002084F8BA
:103F4000400000BF2A4639462046FEF76FFA17E0C8
:103F50004FF400412046FFF089FA00BF002084F8AA
:103F6000400000BF2A4639462046FEF75FFA07E0C8
:103F700008202168C86100BF002084F8400000BF0D
:103F8000BDE8F0872DE9F04104460F462068D0F8DF
:103F900000803E4694F8415020202168C861212DC0
:103FA00001D0292D07D148F201012046FFF05EFA29
:103FB000212020630AE0222D01D02A2D06D148F2CB
:103FC00002012046FFF052FA222020632068406858
:103FD00040F400402168486020684068A8490840D3
:103FE000216848602046FFF752FFC8F38030002860
:103FF00070D02068006820F4804021680860A06BC1
:10400000002865D0A06B00689E49884258D0A06BFC
:1040100000689C491831884252D0A06B00689949C9
:10402000303188424CD0A06B0068964948318842B4
:1040300046D0A06B006893496031884240D0A06BA5
:1040400000689049783188423AD0A06B00688D4969
:104050009031884234D0A06B00688A49A8318842E8
:104060002ED0A06B00688849884229D0A06B0068D8
:1040700085491831884223D0A06B006882493031CD
:1040800088421DD0A06B00687F494831884217D014
:10409000A06B00687C496031884211D0A06B006839
:1040A0007949783188420BD0A06B0068764990310D
:1040B000884205D0A06B00687349A831884203D1BB
:1040C000A06B0068406802E0A06B006840686085F3
:1040D00073E0FFE7C8F3C03000286ED020680068A6
:1040E00020F4004021680860E06B002865D0E06B98
:1040F00000686449884258D0E06B00686149183113
:10410000884252D0E06B00685E49303188424CD022
:10411000E06B00685B494831884246D0E06B00683C
:1041200058496031884240D0E06B00685549783189
:1041300088423AD0E06B006852499031884234D0CE
:10414000E06B00684F49A83188422ED0E06B0068D0
:104150004D49884229D0E06B00684B4918318842AC
:1041600023D0E06B00684849303188421DD0E06BB5
:10417000006845494831884217D0E06B00684249E1
:104180006031884211D0E06B00683F497831884245
:104190000BD0E06B00683C499031884205D0E06B61
:1041A00000683949A831884203D1E06B0068406853
:1041B00002E0E06B006840686085C6F3800080B173
:1041C00026F004062068406A616A0870606A401C34
:1041D0006062208D28B1208D401E2085608D401E9C
:1041E0006085608D18B1606C40F004006064002050
:1041F00084F842006063606C60B1616C2046FFF03F
:104200006DF994F84100282837D131462046FFF057
:10421000F7F932E0E06A10F5803F11D0204600F057
:1042200037F81A48E062202084F84100002020631B
:1042300000BF84F8400000BF2046FEF071F91CE08A
:1042400094F8410022280CD1202084F8410000205D
:10425000206300BF84F8400000BF2046FEF736F917
:104260000BE0202084F841000020206300BF84F888
:10427000400000BF2046FEF04DFBBDE8F08100008D
:1042800000E800FE10000240100402400000FFFFA2
:1042900070B5044620680568002084F84200C5F324
:1042A000803030B12068006820F4804021680860C8
:1042B00008E0C5F3C03028B12068006820F4004051
:1042C0002168086094F84100292811D1282084F839
:1042D00041002120206301212046FFF0C7F800BFE4
:1042E000002084F8400000BF2046FEF013FB14E0DD
:1042F00094F841002A2810D1282084F84100222077
:10430000206302212046FFF0B1F800BF002084F8AE
:10431000400000BF2046FEF7D9F870BD70B50446D6
:104320000D46164620688069C0F3001000283DD075
:1043300017E0681CA8B1FEF089F8801BA84200D8DD
:104340007DB9606C40F020006064202084F841005A
:10435000002084F8420000BF84F8400000BF012024
:1043600070BD20688069C0F340100028E1D01020A3
:104370002168C86120202168C8612046FFF787FDB9
:10438000206840680A49084021684860606C40F035
:1043900004006064202084F84100002084F842007A
:1043A00000BF84F8400000BF0120D9E70020D7E714
:1043B00000E800FE2DE9F8430446894615461E46EE
:1043C000DDE908781948F2B2C30249460090204658
:1043D000FFF030FA42463946204600F029F810B185
:1043E0000120BDE8F883012E03D1E8B2216888627C
:1043F0000EE0C5F307202168886242463946204610
:1044000000F016F808B10120EBE7E8B221688862F5
:104410003B46002280212046CDF80080FFF041FA83
:1044200008B10120DDE70020DBE70000002000806C
:1044300070B504460D4616461FE032462946204612
:10444000FFF76CFF08B1012070BD681CA8B1FDF03A
:10445000FDFF801BA84200D87DB9606C40F02000B1
:104460006064202084F84100002084F8420000BFEE
:1044700084F8400000BF0120E6E720688069C0F3AF
:1044800040000028D9D00020DEE701468868C0F34C
:10449000C00070470146886800F00100704701467F
:1044A0008868C0F3800070478168024A1140091D86
:1044B00081607047C0FFFF7F10B504461021204681
:1044C000FFF03AFD10BD00007FB5054600200090CA
:1044D000019002900390012404E0285D0DF804008F
:1044E000601CC4B2082CF8DB344890F8F0020128B4
:1044F0005FD19DF80100D72802D100208DF801007E
:104500009DF80200D72805D19DF8010010B90020C0
:104510008DF802009DF80300D72808D19DF801000E
:1045200028B99DF8020010B900208DF803009DF80D
:104530000400D7280BD19DF8010040B99DF8020076
:1045400028B99DF8030010B900208DF804009DF8EB
:104550000500D7280ED19DF8010058B99DF802003A
:1045600040B99DF8030028B99DF8040010B9002057
:104570008DF805009DF80600D72811D19DF801009F
:1045800070B99DF8020058B99DF8030040B99DF834
:10459000040028B99DF8050010B900208DF8060028
:1045A000684600F00DF86846FFF026FD6846FFF00B
:1045B00005FD10216846FFF0BFFC7FBD000C002404
:1045C00070B504468020E073207326490878FCF714
:1045D0004DFF0546207B40EA25102073607B05F0E7
:1045E0000F0140EA011060731E494878FCF73EFF56
:1045F0000546607B40EA25106073A07B05F00F0143
:1046000040EA0110A07317498878FCF72FFF054690
:10461000A07B40EA2510A073E07B05F00F0140EA83
:104620000110E07310490878FCF720FF0546A07AD6
:1046300040EA2510A072E07A05F00F0140EA01106F
:10464000E07209494878FCF711FF0546E07A40EA34
:104650002510E072207B05F00F0140EA0110207365
:1046600070BD0000560100245901002410B50D480A
:1046700090F8F502012813D10A48D0F8400D30B95E
:1046800000224FF480410848FDF7CAFE08E00548C3
:10469000D0F8400D20B1012291030348FDF7C0FE80
:1046A00010BD0000000C0024000802582DE9F04164
:1046B00004468025042608270022A9010848FDF7A2
:1046C000AFFE31462846FFF043FD39462046FFF055
:1046D0003FFD012251030248FDF7A2FEBDE8F08133
:1046E00000100258FEB504460D4616464FF47A7087
:1046F00002232246A021CDE9005602900148FDF098
:10470000E1FFFEBDB40A002410B52DED028B84B08C
:104710000446B0EE408B0D4A18EE100A18EE901ABF
:10472000106051604FF47A7008210223CDE9002116
:1047300002902246A0210648FDF0C4FF6420FDF748
:104740003BFD04B0BDEC028B10BD00004C01002409
:10475000B40A002410B52948294908600846FDF725
:10476000C1FA08B1FCF7C0FF4FF48020244948602B
:104770000021234881600121C160042101610021E1
:1047800001750121417581610021017701210162DB
:10479000002141628162C16241634FF48051016333
:1047A000002180F83810FDF7C1FB08B1FCF79CFF31
:1047B00040F2FF7200211248FCF79AFF08B1FCF7A3
:1047C00093FF104810490860062048600720886061
:1047D00040F2FF70C860042008610020486108763C
:1047E00048760748FCF7E0FF08B1FCF77DFF044876
:1047F000FCF040FE08B1FCF777FF10BD002002403E
:10480000340A00242000F014980A002400B587B070
:10481000142102A8FBF02CFC00BF4548006840F0C2
:104820008000434908600846006800F0800001905D
:1048300000BF00BF00BF0846006840F001000860EC
:104840000846006800F00100019000BF00BF00BFF3
:104850000846006840F0040008600846006800F060
:104860000400019000BF00BF00BF0846006840F090
:10487000020008600846006800F00200019000BFD6
:1048800000BF00BF0846006840F008000860084606
:10489000006800F00800019000BF00BF00BF08469C
:1048A000006840F0100008600846006800F0100042
:1048B000019000BF00BF2020029001200390002043
:1048C0000490059002A91B48FDF7A6FC00222021B8
:1048D0001848FDF7A5FD202002900120039000203C
:1048E0000490059002A91448FDF796FC00222021AF
:1048F0001148FDF795FD1020029001200390002043
:104900000490059002A90B48FDF786FC00221021B7
:104910000848FDF785FD102002900120039000203B
:104920000490059002A90548FDF776FC07B000BD8C
:10493000E0440258000802580004025800000258DF
:1049400010B50A480A4908600A484860002108482A
:1049500081600121C160002101614161C161016289
:10496000FDF07CFD08B1FCF7BFFE10BD0054004017
:10497000B40A00241509811010B50F480F490860CA
:104980004FF48000486000210C4881600721C1601D
:104990000021016141614FF0806181610021C161AD
:1049A0000162416281620A21C162FEF0A7FA08B188
:1049B000FCF79AFE10BD000000140058000B002404
:1049C00010B50F480F4908604FF4E13048600021EE
:1049D0000C488160C16001610C214161002181614D
:1049E000C161FFF748F808B1FCF77EFE0548006892
:1049F000006840F0200003490968086010BD00000D
:104A0000001401409008002400BFFEE7704700003A
:104A10002DE9F05F81468A4616461F46DDE90A4BBE
:104A2000164880F8009080F801A0300A1349887079
:104A3000CE70380A08714F7108468471002506E06F
:104A40001BF80510E81D0D4A1154681CC5B2A5429B
:104A5000F6DBE01DC1B2094800F0A6F980464FEA36
:104A60001821E01D054A1154401C02F80080421C28
:104A700002490348FEF094FCBDE8F09F5819002459
:104A80000408002410B503480068C0690148FEF01E
:104A900081FB10BD0408002410B503480068C069FC
:104AA0000148FEF077FB10BDA809002410B50446AC
:104AB0002068006820F04000216808602020C4F8C9
:104AC0008000002020672046FFF7C6F910BD10B512
:104AD000D0F88030212B2AD1B0F86A1024E0B0F849
:104AE000563063B903689B6823F400030468A3602D
:104AF00003681B6843F040030468236016E0036802
:104B0000DB6903F080036BB1026D1388C3F3080304
:104B10000468A362036D9B1C0365B0F856305B1EEE
:104B2000A0F856304B1E99B20029D8D100BF10BD55
:104B3000D0F8801021291BD1B0F8561061B9016856
:104B4000096821F08001026811600168096841F07C
:104B50004001026811600BE0016D09780268916202
:104B6000016D491C0165B0F85610491EA0F8561099
:104B70007047D0F88020212A28D1B0F86A1022E0AE
:104B8000B0F8562062B90268926822F40002036805
:104B90009A600268126842F0400203681A6014E0EA
:104BA0000268D26902F080025AB1026D127803687D
:104BB0009A62026D521C0265B0F85620521EA0F88F
:104BC00056204A1E91B20029DAD100BF704700007A
:104BD00010B503480068C0690148FEF0DBFA10BD5B
:104BE000EC06002410B5FFF007FCFFF029FCFFF7EE
:104BF000E7FEFFF049FC10BD03B4019841000098A6
:104C000050EAC12018BF04204A0D18BF40F001002F
:104C100040F2FF72B2EB515F08BF40F00200012882
:104C200008BF052002B0704702480068C0F30220A8
:104C3000704700000CED00E010B5002804DB0A0707
:104C4000130E054A135406E00A07140E034A00F037
:104C50000F031B1FD45410BD00E400E018ED00E06A
:104C6000491E00EBC102B0EE401B92ED000B31F08B
:104C700006020DD0491E00EBC102B0EE403B92EDA2
:104C8000002B31F00602B0EE420B03EE010BF1D126
:104C9000022914D004290AD0062918BF704790EDC4
:104CA0000A2B00EE012B90ED080B02EE010B90EDAC
:104CB000062B00EE012B90ED040B02EE010B90EDA4
:104CC000022B00EE012B90ED000B02EE010B704762
:104CD00030EE010B704700009FED030B20EE000B40
:104CE000704700000000000000000000000000709D
:104CF00002E008C8121F08C1002AFAD170477047A5
:104D0000002001E001C1121F002AFBD17047000002
:104D100001490860704700005805002482B0CDE9C1
:104D2000000121F0004001909DED000B02B051EC1C
:104D3000100B70471FB513A30FCB8DE80F00FDF0CC
:104D4000F7FDFFF0D9FBFFF761FDFFF7F9FDFEF07E
:104D500003FEFFF7FFFCFFF0DFFAFFF70DFEFFF0A9
:104D60002FFB684600F016F8FFF73CFF6846FFF798
:104D7000ABFB05E0FCF00EFBFCF758FCFFF776FC04
:104D8000F8E70000FFFFFFFFFFFFFFFFFFFFFFFF50
:104D9000FFFFFFFF0146002002E00854421CD0B292
:104DA0001028FADB7047000070B502460C46FF255C
:104DB000FF2309E012F8010B80EA05010648405C78
:104DC00080EA03050548435C201EA4F10106F4B205
:104DD000F0D143EA052070BD5B0100245B02002492
:104DE00000B541EC100B2DED028B83B0B1EEC08B02
:104DF00018EE100A18EE901A8DED008B002818BFDF
:104E00000120084320F00040C0F17F6000F1E04045
:104E1000C00F14D010EE101A10EE900A8DED000B9A
:104E2000002918BF0121084320F00040C0F17F6035
:104E300000F1E040C00F04BF0120FFF769FF51EC13
:104E4000180B03B0BDEC028B00BD000010B51CE0D8
:104E50002B48FFF731FB2B4890F85000A8B92948A0
:104E600090EDD61AB7EEC11AB0EE410B00F54A71BB
:104E700000F53E7000F1AEFE224880ED0A0B00F115
:104E8000EFFC01201F4981F850001E48B0F8E002F5
:104E90001428DDDB1B4890EDD61AB7EEC11AB0EE30
:104EA000410B00F54A7100F53E7000F193FE154884
:104EB00080ED0A0B00F1D4FC124890ED0A0B124869
:104EC00080ED1A0B9FED110B0E4880ED0E0B90ED4F
:104ED0000A0B0D4890ED1C1B30EE410BB1EE001B90
:104EE000B4EEC10BF1EE10FA04D2064890ED0A0BB5
:104EF00080ED080B9FED050B024880ED0E0B10BDF9
:104F00001C040024000C0024880B00240000000076
:104F1000000000002DE9FE4F04468946B0EE405BDC
:104F20009046B0EE416B9A464FF0000B2546F7488D
:104F3000B5FBF0F0C6B2F548B5FBF0F100FB11553A
:104F40008DF80460F248B5FBF0F0C6B2F048B5FB4E
:104F5000F0F100FB11558DF80560EE48B5FBF0F05F
:104F6000C6B2EC48B5FBF0F100FB11558DF80660B8
:104F700042F21070B5FBF0F0C6B242F21070B5FB11
:104F8000F0F100FB11558DF807604FF47A70B5FB16
:104F9000F0F0C6B24FF47A70B5FBF0F100FB11559A
:104FA0008DF808606420B5FBF0F0C6B26420B5FB54
:104FB000F0F100FB11558DF809600A20B5FBF0F007
:104FC000C6B20A20B5FBF0F100FB11558DF80A605E
:104FD000EEB28DF80B609DF80A00002878D19DF89C
:104FE00008000028FAD19DF809000028F6D1CA4827
:104FF000807806286CD09FEDC90BB4EEC05BF1EE53
:1050000010FA28D2142C26D99DF80B00012809D1BA
:10501000C4480078012801D1641E88E30120C149F9
:10502000087084E39DF80B00022812D1BD48007877
:10503000022801D1A41E7AE3BA480078012804D1DD
:10504000641E0220B749087071E30120B549087059
:105050006DE3A41E6BE39FEDB10BB4EEC05BF1EE0C
:1050600010FA4EDD9FEDB00BB4EEC05BF1EE10FA1E
:1050700047D29DF80B00012809D1AA4800780128E1
:1050800001D1641E53E30120A64908704FE39DF847
:105090000B00022812D1A3480078022801D1A41ED7
:1050A00045E3A0480078012804D1641E02209D49F0
:1050B00008703CE301209B49087038E39DF80B0021
:1050C00003281CD197480078032802D1E41E2EE360
:1050D00060E194480078022804D1A41E032091497D
:1050E000087024E38F480078012804D1641E022050
:1050F0008C4908701BE301208A49087017E3A41E3D
:1051000015E39FED890BB4EEC05BF1EE10FA77DD8D
:105110009FED870BB4EEC05BF1EE10FA70D29DF8F4
:105120000B00012809D17F480078012801D1641EB5
:10513000FDE201207B490870F9E29DF80B0002288E
:1051400012D178480078022801D1A41EEFE27548F8
:105150000078012804D1641E022072490870E6E23A
:10516000012070490870E2E29DF80B0003281BD172
:105170006C480078032801D1E41ED8E26948007821
:10518000022804D1A41E032066490870CFE26548B6
:105190000078012804D1641E022062490870C6E22A
:1051A000012060490870C2E29DF80B00042825D157
:1051B0005C480078042801D1241FB8E259480078DF
:1051C000032804D1E41E042056490870AFE2554874
:1051D0000078022804D1A41E032052490870A6E2D8
:1051E00050480078012805D1641E02204D490870FE
:1051F0009DE205E001204B49087098E2A41E96E26A
:105200009FED4B0BB4EEC05BF1EE10FA90DD9FED1D
:105210004A0BB4EEC05BF1EE10FA89D29DF80B0098
:10522000012809D13F480078012801D1641E7EE29F
:1052300001203C4908707AE29DF80B00022812D147
:1052400038480078022801D1A41E70E23548007861
:10525000012804D1641E02203249087067E201204F
:105260003049087063E29DF80B0003281BD12D48DC
:105270000078032801D1E41E59E22A480078022868
:1052800004D1A41E03202749087050E22548007865
:10529000012804D1641E02202249087047E201203F
:1052A0002049087043E29DF80B00042824D11D48D2
:1052B0000078042801D1241F39E21A480078032815
:1052C00004D1E41E04201749087030E21548007824
:1052D000022804D1A41E03201249087027E21148B5
:1052E0000078012804D1641E02200E4908701EE2D5
:1052F00001200C4908701AE29DF80B00052847D1DF
:105300000848007805281BD1641F10E28096980099
:1053100040420F00A0860100880B00249A999999B9
:1053200099994840D8030024CDCCCCCCCC8C5E409D
:105330006666666666C666406666666666C66B4094
:10534000F7480078042804D1241F0520F449087088
:10535000EDE1F3480078032804D1E41E0420F0496D
:105360000870E4E1EE480078022804D1A41E03206E
:10537000EB490870DBE1EA480078012804D1641E9B
:105380000220E7490870D2E10120E5490870CEE12A
:10539000A41ECCE19DF80A0009286ED19DF80800F2
:1053A0000928FAD19DF809000928F6D1DD4880784E
:1053B000062862D01FED270BB4EEC05BF1EE10FAA9
:1053C00028D2142C26D99DF80B00092809D1D448DD
:1053D0000078012801D1641CA9E10120D04908709E
:1053E000A5E19DF80B00082812D1CD4800780228CD
:1053F00001D1A41C9BE1CA480078012804D1641C97
:105400000220C749087092E10120C54908708EE169
:10541000A41C8CE11FED3F0BB4EEC05BF1EE10FA63
:105420004EDD1FED3F0BB4EEC05BF1EE10FA47D23C
:105430009DF80B00092809D1B9480078012801D14D
:10544000641C74E10120B649087070E19DF80B00FE
:10545000082813D1B2480078022801D1A41C66E1C3
:10546000AF480078012804D1641C0220AC490870C0
:105470005DE10120AA49087059E155E19DF80B0052
:1054800007281BD1A6480078032801D1E41C4EE16F
:10549000A3480078022804D1A41C0320A049087066
:1054A00045E19F480078012804D1641C02209C49F2
:1054B00008703CE101209A49087038E1A41C36E1EB
:1054C0001FED670BB4EEC05BF1EE10FA77DD1FED58
:1054D000680BB4EEC05BF1EE10FA70D29DF80B00D1
:1054E000092809D18E480078012801D1641C1EE1E9
:1054F00001208B4908701AE19DF80B00082812D191
:1055000087480078022801D1A41C10E18448007863
:10551000012804D1641C02208149087007E10120A0
:105520007F49087003E19DF80B0007281BD17C48D8
:105530000078032801D1E41CF9E0794800780228BA
:1055400004D1A41C032076490870F0E07448007868
:10555000012804D1641C022071490870E7E0012091
:105560006F490870E3E09DF80B00062825D16C48D0
:105570000078042801D1241DD9E069480078032867
:1055800004D1E41C042066490870D0E06448007827
:10559000022804D1A41C032061490870C7E06048B8
:1055A0000078012805D1641C02205D490870BEE026
:1055B00005E001205A490870B9E0A41CB7E01FEDCE
:1055C000A40BB4EEC05BF1EE10FA0FDD1FEDA60BDD
:1055D000B4EEC05BF1EE10FA08D29DF80B0009287A
:1055E00009D14F480078012801D1641C9FE00120B7
:1055F0004B4908709BE09DF80B00082812D14848E1
:105600000078022801D1A41C91E0454800780128C7
:1056100004D1641C02204249087088E001204049FE
:10562000087084E09DF80B0007281BD13C480078E7
:10563000032801D1E41C7AE039480078022804D11B
:10564000A41C03203649087071E035480078012811
:1056500004D1641C02203249087068E001203049FE
:10566000087064E09DF80B00062824D12C480078CF
:10567000042801D1241D5AE029480078032804D1C8
:10568000E41C04202649087051E0254800780228CF
:1056900004D1A41C03202249087048E02048007867
:1056A000012804D1641C02201D4908703FE001203C
:1056B0001B4908703BE09DF80B0005282DD11848C8
:1056C0000078052801D1641D31E0154800780428D0
:1056D00004D1241D05201249087028E010480078E4
:1056E000032804D1E41C04200D4908701FE00C4875
:1056F0000078022804D1A41C03200949087016E090
:1057000007480078012804D1641C0220044908706D
:105710000DE001200249087009E0A41C07E0000028
:10572000D8030024880B00240020984908709DF8B5
:10573000050090B99DF8060078B99DF8070060B99A
:105740009DF8080048B99DF8090030B99DF80A0095
:1057500018B99DF80B0000B900240F98009041463D
:105760002046DDE90D23FEF073FD89488078062888
:1057700033D1B8F1000F08D19FED860B26EE000B58
:10578000BCEEC00B10EE105A5AE0B8F1010F0AD16E
:105790009FED821BB0EE430B02EE010BBCEEC00B83
:1057A00010EE105A4CE0B8F1020F08D19FED790BC2
:1057B00025EE000BBCEEC00B10EE105A40E0B8F125
:1057C000030F08D19FED730B24EE000BBCEEC00B52
:1057D00010EE105A34E0554632E0B8F1000F08D10F
:1057E0009FED6C0B26EE000BBCEEC00B10EE105ABA
:1057F00026E0B8F1010F0AD19FED681BB0EE430B14
:1058000002EE010BBCEEC00B10EE105A18E0B8F11E
:10581000020F08D19FED5F0B25EE000BBCEEC00B15
:1058200010EE105A0CE0B8F1030F08D19FED590BA0
:1058300024EE000BBCEEC00B10EE105A00E05546F3
:105840005848B5FBF0F0C6B25648B5FBF0F100FB86
:1058500011558DF804605448B5FBF0F0C6B25248BB
:10586000B5FBF0F100FB11558DF805604F48B5FB15
:10587000F0F0C6B24D48B5FBF0F100FB11558DF8C4
:10588000066042F21070B5FBF0F0C6B242F2107042
:10589000B5FBF0F100FB11558DF807604FF47A70FD
:1058A000B5FBF0F0C6B24FF47A70B5FBF0F100FB37
:1058B00011558DF808606420B5FBF0F0C6B2642085
:1058C000B5FBF0F100FB11558DF809600A20B5FB1E
:1058D000F0F0C6B20A20B5FBF0F100FB11558DF8CF
:1058E0000A60EEB28DF80B609DF80400012806D125
:1058F00099F8000040F0040089F8000005E099F8EC
:10590000000000F0FB0089F80000012739E028487A
:1059100010F80800B8421EDDBBF1000F06D001A848
:10592000C05D2449085C09F8070028E001A8C05DB3
:1059300020B999F8000000F0020040B101A8C05D54
:105940001C49085C09F807004FF0FF0B17E0002026
:1059500009F8070013E0164810F80800B84208D10B
:1059600001A8C05D1349085C40F0080009F8070071
:1059700005E001A8C05D0F49085C09F80700781C24
:10598000C7B2082FC3DBBDE8FE8F0000D803002498
:10599000880B0024000000000088C34000000000C5
:1059A000000070408096980040420F00A0860100E1
:1059B000D9030024E00300240020884981F8530023
:1059C000084690ED0A0B90ED0C1B30EE410B80ED7C
:1059D0001C0B90ED0A0B80ED0C0B90ED1C0B9FED5A
:1059E000801BB4EEC10BF1EE10FA41D290ED1C0B0E
:1059F0009FED7D1BB4EEC10BF1EE10FA38DD90F88F
:105A0000780028B1084690F87800401E81F87800A8
:105A1000724890F87800192803DA00206F4981F85D
:105A2000F3026E4890F87800E8B97148C07901280F
:105A300019DD6A4890ED0A0B9FED6E1BB4EEC10BA9
:105A4000F1EE10FA0FDD90ED0E0B90ED1C1B30EE19
:105A5000010B80ED0E0B90ED0A0B90ED0E1B30EE5E
:105A6000410B80ED0A0B01205C4981F8380D11E0F3
:105A70009FED620B594880ED0E0B0020574981F8CD
:105A8000F302282081F87800002081F8380D0F20DB
:105A9000C1F8400D514890ED0A0B00F5406090EDC3
:105AA000521B30EE410B4D4880ED100B90ED0A0B70
:105AB0009FED541BB4EEC10BF1EE10FA0EDD90ED2C
:105AC000101B90F8680000EE100AB8EE400B9FED36
:105AD0004F2B02EE001B414880ED101B3F4890ED1C
